:100000000C9461000C947E000C947E000C947E0095
:100010000C947E000C947E000C947E000C947E0068
:100020000C947E000C947E000C947E000C947E0058
:100030000C947E000C947E000C947E000C947E0048
:100040000C94D7000C947E000C947E000C947E00DF
:100050000C947E000C947E000C947E000C947E0028
:100060000C947E000C947E00000000002400270009
:100070002A000000000023002600290000000000E4
:10008000250028002B0004040404040404040202D4
:100090000202020203030303030301020408102007
:1000A0004080010204081020010204081020000012
:1000B0000008000201000003040700000000000027
:1000C000000011241FBECFEFD8E0DEBFCDBF11E08E
:1000D000A0E0B1E0E8E2F4E002C005900D92A830A3
:1000E000B107D9F721E0A8E0B1E001C01D92A1322B
:1000F000B207E1F70E9421010C9412020C94000057
:10010000833081F028F4813099F08230A9F008958D
:100110008730A9F08830C9F08430B1F48091800034
:100120008F7D03C0809180008F7780938000089539
:1001300084B58F7784BD089584B58F7DFBCF809182
:10014000B0008F778093B00008958091B0008F7DCC
:10015000F9CF1F93CF93DF93282F30E0F901E255B9
:10016000FF4F8491F901E656FF4FD491F901EA5708
:10017000FF4FC491CC23A9F0162F81110E9480005B
:10018000EC2FF0E0EE0FFF1FE458FF4FA591B49164
:100190008FB7F894EC91111108C0D095DE23DC9351
:1001A0008FBFDF91CF911F910895DE2BF8CF1F9263
:1001B0000F920FB60F9211242F933F938F939F931B
:1001C000AF93BF9380911D0190911E01A0911F01DB
:1001D000B091200130911C0123E0230F2D3758F5F9
:1001E0000196A11DB11D20931C0180931D019093C8
:1001F0001E01A0931F01B0932001809118019091DE
:100200001901A0911A01B0911B010196A11DB11D08
:100210008093180190931901A0931A01B0931B01C8
:10022000BF91AF919F918F913F912F910F900FBEF2
:100230000F901F90189526E8230F0296A11DB11D5F
:10024000D2CF789484B5826084BD84B5816084BD4A
:1002500085B5826085BD85B5816085BD80916E0064
:10026000816080936E001092810080918100826095
:1002700080938100809181008160809381008091D2
:1002800080008160809380008091B10084608093C1
:10029000B1008091B00081608093B00080917A00BD
:1002A000846080937A0080917A00826080937A00E3
:1002B00080917A00816080937A0080917A008068D2
:1002C00080937A001092C10008E011E060E0E62E11
:1002D00061E0F62ED0E0C0E0F701819191917F01BD
:1002E0009C013327F901E656FF4F44912A573F4FAF
:1002F000F9012491222399F030E0220F331FF901F4
:10030000E859FF4FA591B491F901E458FF4F2591A9
:1003100034912FB7F894EC914E2B4C932FBF61E0A2
:10032000C0FD60E00E94A900F801119211921192A3
:1003300011928F012196C430D10509F0CDCF20E074
:10034000C22E20E0D22EC0E0D1E008E011E090E91A
:10035000892E99249394A12CB12C2FB7F8948091D5
:100360001D0190911E01A0911F01B09120012FBF8E
:10037000F80141915191619171918F012C013D01E1
:10038000441A550A660A770AB301A20148155905AD
:100390006A057B0508F431C0349780839183A2837A
:1003A000B383E880F98097013327F901E255FF4FC5
:1003B0008491F901E656FF4F7490F901EA57FF4F17
:1003C000649070E060E0662099F081110E948000E6
:1003D000E62DF0E0EE0FFF1FEE58FF4FA591B49110
:1003E000EC917E2291E080E009F490E0692F782F73
:1003F00021E062278E2D0E94A90088EC880E911CB6
:10040000A11CB11C2296E0EB8E16E4E09E06A1042E
:10041000B10409F0A2CFC114D10409F494CF0E9411
:08042000000091CFF894FFCF1A
:080428000000010002000300C6
:00000001FF
